:1010000000670020912B01009D080200652B010064
:10101000652B0100652B0100652B0100000000001D
:10102000000000000000000000000000B5270100E3
:10103000652B0100000000006127010051840100C0
:101040006D280100FB2802006D2801006D280100B9
:101050006D2801006D2801006D2801006D28010038
:10106000C32802006D2801006D280100E12802005C
:101070006D2801006D2801006D2801006D28010018
:101080006D2801006D2801006D2801006D28010008
:101090006D2801006D2801006D2801006D280100F8
:1010A0006D2801006D2801006D2801006D280100E8
:1010B0006D2801006D2801006D2801006D280100D8
:1010C0006D2801006D2801006D2801006D280100C8
:1010D0006D2801006D2801006D2801006D280100B8
:1010E0006D2801006D2801006D2801006D280100A8
:1010F0006D2801006D2801006D2801006D28010098
:1011000053B94AB9002908BF00281CBF4FF0FF316E
:101110004FF0FF3000F06CB9ADF1080C6DE904CE72
:1011200000F006F8DDF804E0DDE9022304B07047C2
:101130002DE9F047089E0D4604468E46002B40F0F0
:1011400082808A42174646D9B2FA82F24AB1C2F187
:10115000200105FA02F320FA01F1974041EA030E5B
:1011600094404FEA1748230CBEFBF8FCB9B208FBC9
:101170001CEE43EA0E430CFB01F098420AD9FB181F
:101180000CF1FF3580F01681984240F21381ACF1EA
:10119000020C3B441B1AA4B2B3FBF8F008FB10335B
:1011A00044EA034400FB01F1A14209D93C1900F1D2
:1011B000FF3380F00181A14240F2FE8002383C44BE
:1011C000641A40EA0C4000211EB1D4400023C6E955
:1011D0000043BDE8F08702B9FFDEB2FA82F2002ACE
:1011E0004FD1CB1B4FEA174E1FFA87F80121B3FBF3
:1011F000FEFC250C0EFB1C3345EA034508FB0CF3F3
:10120000AB4207D97D190CF1FF3002D2AB4200F29C
:10121000E7808446ED1AA3B2B5FBFEF00EFB105535
:1012200043EA054408FB00F8A04507D93C1900F142
:10123000FF3302D2A04500F2D7801846A4EB080481
:1012400040EA0C40C0E78B4208D9002E00F0AF8086
:101250000021C6E900050846BDE8F087B3FA83F12E
:1012600000294BD1AB4202D3824200F2B780841AEC
:1012700065EB030301209E46002EAAD0C6E9004E6E
:10128000A7E7C2F1200C01FA02F3974020FA0CF014
:101290004FEA174E21FA0CFC1843BCFBFEF1050C7B
:1012A0000EFB11CC1FFA87F845EA0C4501FB08F349
:1012B000AB4204FA02F409D97D1901F1FF3C80F038
:1012C0008B80AB4240F2888002393D44EB1A85B2F4
:1012D000B3FBFEF00EFB103345EA034500FB08F3B9
:1012E000AB4207D97D1900F1FF3C71D2AB426FD9F7
:1012F00002383D44EB1A40EA014178E7C1F1200C85
:101300008B4022FA0CF71F4320FA0CF405FA01F384
:101310004FEA174E25FA0CF51C43230CB5FBFEF9DA
:101320001FFA87F80EFB195543EA054509FB08FA31
:10133000AA4502FA01F200FA01F308D97D1909F170
:10134000FF3047D2AA4545D9A9F102093D44A5EB92
:101350000A05A4B2B5FBFEF00EFB105544EA0544A5
:1013600000FB08F8A04507D93C1900F1FF352DD244
:10137000A0452BD902383C4440EA0940A4EB0804BC
:10138000A0FB02894C45C6464D4619D316D05EB126
:10139000B3EB0E0264EB050404FA0CFCCA404CEA01
:1013A0000202CC40C6E900240021BDE8F0873146A6
:1013B00030460EE7AC46EDE6184601E74345E6D277
:1013C000B8EB020E69EB07050138E0E72846D3E7E2
:1013D00060468FE78146BAE7614677E708464BE704
:1013E000ACF1020C3D4415E702383C4426E700BF4F
:1013F000704700BFF8B515460A4A1C4656682EB11C
:1014000001B02A46B446BDE8F040604700208DF8A0
:10141000000068460BF0FAFE9DF80000281A2070C4
:101420000020F8BD0000002001480078704700004F
:101430000800002005490A78904201D30020704737
:10144000496800EBC00001EB8000704708000020F5
:1014500070B50546202A27D019481A4C00EB831C8A
:101460000CEB420004EB8303202922D00CEB41015A
:1014700040784C784870204601460CEB4100914280
:1014800005704078F8D193F82220202A1ABF0CEB7F
:101490004202547083F8214020220CEB410C8CF85E
:1014A000012083F8221070BD40F27E21702003F0ED
:1014B00057F993F82040407883F82000DBE70000DC
:1014C000A40C0020240D00202DE9FF4F85B0154607
:1014D0000C4602F01BF9284420F07F40029021685E
:1014E000081A0002C11700EB11600012002800F377
:1014F000D580AC48089FAC4E00EB8700039090F875
:1015000020502020E9460DF104088DF8000006F572
:10151000407A202D18BF0AEB871B25D005EB45002C
:1015200006EBC0002268C168511A0902CA1701EB14
:1015300012610830091217D4618971B1418961B90A
:1015400000F0BAFD02F0E2F82168081A0002C117A3
:1015500000EB11600012332806DB0BEB450089F825
:1015600000504578202DD9D199F8000088F8000066
:10157000A146202D1CBF8D4800EB871B00F00E817B
:1015800005EB450106EBC10AD9F80420DAF808108A
:101590004846891A0902CA1701EB12610AF10807C5
:1015A000091215D47989002900F0F88041890029B1
:1015B00040F0F48000F080FD02F0A8F83968081AC5
:1015C0000002C11700EB11600012332880F2E680A0
:1015D00088F800509AF8141099F80C00814206D946
:1015E0000BEB45004578202DCAD100F0D7B89DF807
:1015F000040000EB400006EBC005688AEF68002895
:1016000043D16089E8B3A8680BF020FE698A2A7C80
:10161000674B1144491C4218984204D940F20961B1
:10162000702003F09DF86348814204DD40F20A61B6
:10163000702003F095F86048814204DA40F20B61B3
:10164000702003F08DF85D489042DCBF02F5F70290
:10165000A2F1F85205DD002ABCBFA2F5F70202F1A3
:10166000F852104602F052F820F07F41781A00023A
:10167000C21700EB126000123328B8BF01F133002B
:1016800000E002E0B8BF20F07F470298381A00025D
:10169000C11700EB11600012002803DD09B0002023
:1016A000BDE8F08FD4E90010401A384427F07F419C
:1016B00020F07F40C4E900100398DDF820806F46D9
:1016C00090F8205020200DF1040A8DF80000202D04
:1016D0001CBF364800EB881925D000BF05EB45003C
:1016E00006EBC0002268C168511A0902CA1701EB53
:1016F00012610830091216D4618971B1418961B94A
:1017000000F0DAFC02F002F82168081A0002C117A2
:1017100000EB11600012332805DB09EB45003D703A
:101720004578202DDAD138788AF800002746202D18
:101730001CBF1E4800EB881B30D005EB450106EBB3
:10174000C1097968D9F808203846511A0902CA1720
:1017500001EB126109F10808091212D4B8F80A1055
:10176000E1B14189D1B900F0A7FC01F0CFFFD8F871
:101770000010081A0002C11700EB11600012332894
:101780000CDA8AF8005099F81400397B88427FF609
:101790002EAF0BEB45004578202DCED109B00120AE
:1017A000BDE8F08F240D0020A4090020A40C002027
:1017B000FF7F841E0020A10700E05EF80080841EE9
:1017C0002DE9F05F04463C480E4600EB86003B4F97
:1017D00090F82050202098469246107007F54079E6
:1017E000202D18BF09EB861B28D000BF05EB450054
:1017F00007EBC00000F10801C0682268101A00025F
:10180000C21700EB1260001218D4608978B14889C1
:1018100068B9084600F050FC01F078FF2168081A0A
:101820000002C11700EB11600012332806DB0BEB3E
:1018300045008AF800504578202DD7D19AF800004D
:1018400088F80000202D18BF09EB861A30D005EB70
:10185000450107EBC1096168D9F808202046511AF3
:101860000902CA1701EB126109F10806091210D426
:101870007189E9B14189D9B900F01EFC01F046FF38
:101880003168081A0002C11700EB116000123328FA
:101890000EDA88F8005099F81400217B884202D8AB
:1018A0000020BDE8F09F0AEB45004578202DCED101
:1018B0000120BDE8F09F0000240D0020A4090020B5
:1018C0002DE9F74F4FF0000898B016460D46C34675
:1018D00002F094F90446012D18BF022D05D040F600
:1018E00094114FF0700002F03BFFFD4901200860A9
:1018F000FC498968086000200C90401E0E90FA494F
:1019000006EB460001EBC00308330FAF0FCB87E8AF
:101910000F000FA800F0D0FB0D90F348BDF84690E3
:10192000B0F89C03ADF84C00B9F1000F14BF4FF0B4
:10193000010A4FF0000A0F981490BAF1000F09D075
:10194000EA4890F82C0028B902F0A6FE002808BF4B
:10195000012700D00027E64800221592007816469D
:10196000012818BF032840D1E148B0F80280A8EB55
:1019700009001590C84538D90D9B6FEA0801DFF8BA
:1019800074E358180DF10C0C17AA734504D940F2F2
:101990000961702002F0E4FED74B994204DD40F269
:1019A0000A61702002F0DCFED44B994204DA40F266
:1019B0000B61702002F0D4FED1498142DCBF00F5FA
:1019C000F700A0F1F85005DD0028BCBFA0F5F70036
:1019D00000F1F850614601F0B5FE03980F9920F030
:1019E0007F400390081A20F07F42002F18BF322654
:1019F00004D19DF84C00002818BF0226B4F1807F66
:101A000008D00F98001B0002C11700EB11600012F4
:101A1000012802DA042118980BE047B1B34890F886
:101A20002D0020B19DF84C00061C18BF0226204650
:101A30000121B9F1000F02D0159B1E2B02DA9DF88F
:101A40004C3013B14FF0010B491E8B19A8499DF87A
:101A50004DE0097815910F99891A21F07F4CACEB74
:101A600000010902CE1701EB16610912994218DB39
:101A7000002A18BFCDF83CC00F9E0597002701F043
:101A8000B7FF301A0002C11700EB116000123E28A8
:101A90003FDA012D20D0701E059920F07F4019B348
:101AA0002DE082B1BEF1000F04BF159903290AD0C1
:101AB00027B99DF84C10002918BF9B1E00228DF8F5
:101AC0004C209046C7E707BB9DF84C10E9B10021B8
:101AD0008DF84C109B1EBEE7B4F1807F20D140F6FC
:101AE0000D11702002F03CFEB4F1807F07D0211A66
:101AF0000902CA1701EB12610912042903DD044629
:101B000001F07CFF0CE000290ADD1BB00020BDE8DD
:101B1000F08F701E20F07F44204601F06FFF574683
:101B2000B4F1807F28D00F98DDF840C0001B8BF007
:101B30000103744A20F07F40ACEB040C2CF07F4C86
:101B4000834298BFB0F5800FDFD26245DDD32046D7
:101B50000BF07CFB67490D9A4B1C161AB6EB930FE2
:101B600024BFA0EB020CBCEB930F10D3B14208D200
:101B7000081A1044461C0AE040F62C21702002F09E
:101B8000EFFD61452CD2891A0844401C4642574853
:101B9000807F50B3284645464FF0000BD8460128B9
:101BA00005D0022002F072F9012002F06FF9A94578
:101BB0002CD2A6EB05014FF001034FF003024FF0CA
:101BC000020002F09BF8002808BF4FF00108B9F1AD
:101BD000000F35D00123A6EB09010322184623E0AC
:101BE00040F60C31702002F0BBFDC14534BF4046C9
:101BF0004846BBF1000F14BF00211E210844B0422B
:101C0000C8DB40F63F21702002F0AAFD10D9012365
:101C1000A6EB09010322184602F070F828B37DB143
:101C2000711B01230322022002F068F8E8B107E0EB
:101C300055EA090004D040F67711702002F090FDBB
:101C4000012303223146002002F058F868B1012533
:101C5000B8F1000F03D014980F908DF84CB0DFF856
:101C6000A880BAF1000F0ED109E0022002F00EF9AF
:101C7000012002F00BF91BB00020BDE8F08F1B48DB
:101C800090F82D0000B14FB3DFF860A09AF82C0057
:101C900018B102F0C9FB8AF82CB007B3A4F13200E6
:101CA00020F07F414FF40020C8F8000000230322F9
:101CB000052002F023F868B34FF08044052002F0BD
:101CC000ABF91249C1F81005C1F814451049E012EA
:101CD0000860064C94F82D00F0B35BE01BE01FE0B9
:101CE0000805004010000020A4090020240D002059
:101CF00012000020FF7F841E0020A10700E05EF894
:101D00000080841EFFFF3F0008F5014098F001406D
:101D100004F5014035E0DFF8B8A09AF82C0058B37C
:101D20002B4C94F82D0050B14FF40020C8F800005F
:101D3000052002F0ABF802F0DFFB84F82DB00CAC0C
:101D4000244894E80E10C0F88013C0F88423C0F82B
:101D50008833C0F88CC300E018E010AC94E80E1093
:101D6000C0F89013C0F89423C0F89833C0F89CC30F
:101D70001BB00120BDE8F08F02F072FB8AF82C50F6
:101D80008BE740F23E31702002F0EAFC02F0A6FB45
:101D900084F82D50A6EB0900A0F11901002904DCFC
:101DA00040F66921702002F0DBFC0322012310467B
:101DB00001F0A4FF38B108488068C0F800B00748B7
:101DC000C0F800B0BBE740F67421702002F0C8FCF8
:101DD000240D0020A4090020100000200805004068
:101DE0002DE9F043064683B008789073CF7A577395
:101DF000887A10730889144650810D460A785F4925
:101E000099464FEA810C4B42ACF101085AB1C043EC
:101E1000D5F8048004F1080288423DDD40F20A61F1
:101E2000702002F09DFCEE686D686FEA000904F115
:101E3000080206EB0900464504D940F2096170200A
:101E400002F08EFC8945E9DC994528DB8445DCBF3E
:101E500000F5F700A0F1F85005DD0028BCBFA0F5A3
:101E6000F70000F1F850214601F06CFC206820F0EA
:101E70007F417019401C2160002F08BF7A3003D0C9
:101E8000012F08BF44302DD101F040FC20F07F40ED
:101E9000606003B0BDE8F0830146984204DA40F286
:101EA0000B61702002F05CFC8445DCBFA1F1F450B2
:101EB000A0F5902005DD0028BCBF01F1F45000F52D
:101EC0009020214601F03EFC2068002F20F07F4149
:101ED00008F10100216008BF7A3008D0012F08BF47
:101EE000443004D040F2B161702002F039FC01F0BE
:101EF0000DFC20F07F416160608901AA694601F014
:101F000021FC1F4890F82F10202923D00069401D84
:101F100020F07F40D4E90021891A2060084420F095
:101F20007F4060604B4632462146E868FFF7CCFAB6
:101F300000281CBF03B0BDE8F083D4E90010401AAC
:101F4000304426F07F4120F07F40C4E9001003B008
:101F5000BDE8F083608906F1090720B102F09CFB1F
:101F6000002808BF3237074841780098814284BF73
:101F7000081A074427F07F40CCE700000020A107A3
:101F8000240D00201200002010B5154C94F82F00ED
:101F9000202818BF10BD94F82E2004EB820090F882
:101FA0002010202917D0DFF83CC00CEB821303EB84
:101FB00041035B7880F82030012380F8233084F8D7
:101FC0002B3084F82F10022000F0B0F8002084F8A5
:101FD0002A00A07710BD40F28B31702002F0C0FBC8
:101FE000240D0020A40C00202DE9F05FDFF8B8805C
:101FF00098F82E5008EB850090F82140202C08BF5F
:10200000BDE8F09FDFF8A4B0DFF8A4A0AAF54079FE
:102010000AEB8517072617F8140001280ED00428AC
:1020200008BF02260AD005280CBF0326062805D0C3
:1020300040F6D9014FF0700002F092FBBBF1000FA7
:1020400018BFAFF30080EFF3108072B607EB4401C6
:102050004A7808EB850181F8212091F82220A242DC
:1020600004BF202281F82220B8B12A46214601204F
:1020700000F05CF804EB440109EBC10059F8312091
:1020800040683146904798F82E5008EB850090F84C
:102090002140202CBCD1BDE8F09F0648002818BF85
:1020A000AFF3008062B6E0E7240D002000000000DE
:1020B000A40C00200000000010B5044600680BF0DE
:1020C000C5F802466089217A144B0844411C501817
:1020D0009A4204D940F20961702002F041FB104A93
:1020E000914204DD40F20A61702002F039FB0D4A92
:1020F000914204DA40F20B61702002F031FB0A4990
:102100008142DEBF00F5F700A0F1F85010BD0028B5
:10211000BCBFA0F5F70000F1F85010BDFF7F841E92
:102120000020A10700E05EF80080841EDFF854C0A4
:1021300010B500230CEB821C07281ED2DFE800F04C
:10214000050505050404040001230CF81100002B0B
:1021500008BF10BD0C4800EB820292F82200202834
:102160000EBF82F821100CEB4000417020200CEBD8
:102170004103587082F8221010BD4FF41571702081
:1021800002F0EEFAA40C0020240D00202DE9F34FFC
:1021900083B05C48049900EB8100019090F82040E6
:1021A00003982546012818BF022805D04FF42B615B
:1021B0004FF0700002F0D4FA0027202D4AD0514889
:1021C00000910026807F002808BF022601F010FC45
:1021D000DFF838A104EB44010AEBC101DFF82891D4
:1021E0008A68C968121A091A22F07F4221F07F41D9
:1021F000964298BFB2F5800F01D2894528D2444A51
:10220000009902EB811B22460BEB42014C78202CFB
:1022100016D004EB44010AEBC10CDCF80880DCF8B2
:102220000CC0A8EB000828F07F48ACEB000121F0BF
:102230007F41464598BFB8F5800FE4D28945E2D387
:10224000202A05D020210420009BFFF701F9044635
:10225000AC4215D12F48002818BFAFF3008001F021
:10226000C7FB284C94F8301020290DD0E168821C5F
:10227000511A0902CA1701EB12610912002903DD84
:1022800005B00020BDE8F08F202D0DD02A4603991F
:10229000FFF716FB58B3019880F8237084F830508C
:1022A00005B00120BDE8F08F94F82C0018B102F0C1
:1022B000BBF884F82C7094F82D0050B116494FF4F7
:1022C00000200860052001F0E1FD02F015F984F816
:1022D0002D70042001F0DAFD01F040FE202084F88A
:1022E00030000E48806807600D480760D8E72A462E
:1022F00020210420049BFFF7ABF805B00020BDE8C7
:10230000F08F0000240D0020FFFF3F00A4090020F3
:10231000A40C00200000000008F50140100000207F
:1023200008050040064910B591F82F20202A1CBF4F
:10233000887710BD40F2EA31702002F011FA0000F7
:10234000240D00202DE9F04F5B4E814685B096F8B4
:102350002F008A4620284DD096F82F0006F10C0455
:1023600000EB4000A6F5607808EBC00720208DF850
:10237000000096F82E0003AA06EB800001A990F851
:102380002050306902903068484401F0DBF9F86869
:1023900001994A4A0844A9F1640191422FD8B968C9
:1023A000411A21F07F41B1F5800F28D220F07F4003
:1023B0006060304684F80CA090F82E00EA46202D8C
:1023C0001CBF3F4901EB801B3CD005EB450008EBEF
:1023D000C0076068BA682146101A0002C21700EBF5
:1023E000126007F1080600121BD4708950B34889A7
:1023F00048B127E040F67B31702002F0B1F905B01A
:102400000120BDE8F08F2046FFF756FE01F07EF96F
:102410003168081A0002C11700EB1160001233285E
:1024200010DA8AF80050397D207B814205D8029865
:10243000606005B00220BDE8F08F0BEB45004578E9
:10244000202DC2D1052001F021FD1B4C4FF0FF30A3
:10245000A06094F82E309DF800202021202A13BF80
:10246000052004EB830090F82000FEF7F1FF94F8BC
:102470002E20134901EB821194F82F2001EB420129
:102480004870206848442060012084F82B00607E5A
:10249000012805D12069401E20F07F4001F048FB53
:1024A0009DF80000202803D00648407802F028FA62
:1024B00005B00020BDE8F08F240D00209C1FA1076F
:1024C000A40C00201000002070B5234A92F82F10B1
:1024D000202939D092F82F10A2F5607301EB410149
:1024E00003EBC10C92F82E1092F82E4002EB810102
:1024F00091F82010A2F1800505EB8414202928D042
:1025000001EB410503EBC5052D7D854284BF04EB3E
:1025100041014978F2D801EB410103EBC101DCF83C
:102520000C0089681468081A0002C11700EB1160DA
:10253000001207D40AF08AFE04F16401884224BF25
:10254000001B70BD002070BD40F64D31702002F0C0
:1025500007F94FF0FF3070BD240D0020064810B57C
:1025600090F82F1020291CBF007E10BD40F674315A
:10257000702002F0F5F80000240D00200246144BF4
:1025800010B508449A4204D940F20961702002F063
:10259000E7F8104A914204DD40F20A61702002F02F
:1025A000DFF80D4A914204DA40F20B61702002F02C
:1025B000D7F80A498142DEBF00F5F700A0F1F850D4
:1025C00010BD0028BCBFA0F5F70000F1F85010BD09
:1025D000FF7F841E0020A10700E05EF80080841EBB
:1025E000104A0B1A02F1010CB3EB9C0F3CBF1846CA
:1025F000704710B5441AB4EB9C0F3CBF184610BD91
:102600009A4203D2101A0844401C10BDA24204D2C0
:10261000511A0844401C404210BD40F60C31702055
:1026200002F09EF8FF7F841E074991F83020824215
:1026300004BF4868704700EB4000044901EBC0004C
:102640000830FFF739BD0000240D0020A409002048
:102650000E4910B591F82F00202812D091F82F00C4
:10266000A1F5607200EB400002EBC00091F82F1062
:10267000406801EB410152F83120BDE810400421CF
:10268000104740F6BC01702002F06AF8240D0020CB
:10269000F8B56D4D6D49012605F56074082873D2B3
:1026A000DFE800F004679DAFCD44B4B994F82C0086
:1026B00018B901F0D5FE84F82C60E08A10B101F061
:1026C000EBFF88B1FFF760FC84F82960A168B1F1E5
:1026D000FF3F05D001230322052001F00FFB40B18D
:1026E000607E012810D109E04FF40761702002F0EC
:1026F00037F840F67501702002F032F82069401E6C
:1027000020F07F4001F014FA94F82F0094F82F1075
:1027100000EB400005EBC000406801EB410155F8BB
:10272000312001B00121BDE8F0401047FFF72CFC3B
:102730004FF0FF30A06094F829008DF800009DF85C
:10274000000088B194F82F0094F82F1000EB40009F
:1027500005EBC000406801EB410155F8312001B0A4
:102760000621BDE8F040104740F68601702001F0D8
:10277000F7FFFFF709FC84F8286001F08DFF20B116
:1027800094F82C0030B109E059E040F69601702031
:1027900001F0E6FF01F064FE84F82C6094F82D004F
:1027A00058B12B494FF400200860052001F06EFB62
:1027B00001F0A2FE002084F82D0094F82F0094F878
:1027C0002F1000EB400005EBC000406801EB410119
:1027D00055F8312001B00021BDE8F040104701F06C
:1027E00007FCE08A10B101F057FF28B119480078C2
:1027F000032808BF6677F8BD40F6A101702001F0FC
:10280000AFFF1548066088680660F8BD0878BDE827
:10281000F84002F075B8FFF7B7FB94F82F0094F872
:102820002F1000EB400005EBC000406801EB4101B8
:1028300055F8312001B00521BDE8F040104740F6C1
:10284000B401702001F08CFFA409002010000020CA
:1028500008F5014012000020080500402DE9F34F63
:102860008246DC488BB00068DB4DC005C00D0ED041
:10287000103840B20028B8BF00F00F0000F1E0208F
:10288000ACBF90F8000490F8140D40090DD00C98DE
:102890004FF0000B0078002818BF012818D040F234
:1028A0004F714FF0700001F05BFF95F82F004FF073
:1028B000010B202807D00C98007848B140F24B71EA
:1028C000702001F04DFF4FF4E961702001F048FFE6
:1028D000C24C24B1002140F25270AFF30080C049D5
:1028E0000AEB4A0001EBC0004FF00108009024B150
:1028F000002140F25A70AFF30080B8F1000F09D008
:1029000095F82E604FF0000985F82B90BBF1000F71
:1029100007D032E0B348002818BFAFF3008062B69A
:10292000EEE73746012020EA0706AF48402200EBD9
:10293000871100EB86100AF0F7FD24B1002140F268
:10294000CD50AFF3008005EB870105EB8600096AE7
:10295000016224B1002140F2D150AFF3008024B1D4
:10296000002140F26470AFF3008095F82B008DF8E1
:1029700004009DF804000028B9D124B1002140F2E0
:102980006E70AFF3008001F033F88046334606AA3C
:102990000C99FFF725FA24B1002140F27570AFF3CE
:1029A0000080914906A801EB861717F81A10012933
:1029B00018BF02293CD10699079BA1EB08018B4A5D
:1029C00021F07F41A3EB080323F07F43022971D359
:1029D000B1F5800F6ED29A426CD34FF0010901AB72
:1029E00005AA3146FEF7ECFE00286BD09DF81410C6
:1029F0009DF8042033468A4268D00520FEF728FD62
:102A000007EB4A0148709DF81400202803BF05EB2E
:102A1000860080F820A080F8239007EB400018BFC4
:102A200080F801A0324651465FF00300FFF77EFBBD
:102A300005EB860090F823008DF804009DF80470E3
:102A400024B1002140F27C70AFF300806848002878
:102A500018BFAFF30080EFF3108872B624B10021E5
:102A600040F28270AFF3008095F82B008DF80400DF
:102A70009DF8040000287FF43AAF24B1002140F211
:102A80008A70AFF300800DF1180E00989EE80E10CA
:102A900000F10800B9F1000F80E80E1044D024B115
:102AA000002140F29770AFF30080BBF1000F2CD1F2
:102AB00016E0FFE7324651460420FFF737FB4FF0A0
:102AC0000109B5E7324651460420AFE7202919BF76
:102AD00007EB4100407805EB860090F820008FE777
:102AE0009FB195F82F0020280FD124B1002140F28A
:102AF0009C70AFF3008031460220FFF747FB20B9FE
:102B00000C980078F0B301284CD024B1002140F299
:102B1000B970AFF30080BBF1000F18BF01204AD09D
:102B200085F82B004FF0010924B1002140F2CA7052
:102B3000AFF30080B8F1000F45D024B1002140F27E
:102B4000CE70AFF30080B9F1000F11D095F82E00D0
:102B500005EB800090F82100202809D024B1002145
:102B600040F2D570AFF300802248407801F0C8FEF3
:102B700024B1002140F2DA70AFF300800DB0484676
:102B8000BDE8F08FFFE724B1002140F2A470AFF35D
:102B9000008095F82E2051460420FFF7C7FA4FF029
:102BA0000109C1E7002C3FF4A2AE002140F2AF7052
:102BB000AFF300809BE695F82E10012020EA01017A
:102BC00085F82E10ACE70748002818BFAFF3008047
:102BD00062B6B2E704ED00E0240D00200000000022
:102BE000A409002000000000A40C0020FFFF3F000B
:102BF00000000000100000202DE9F14FA5488CB026
:102C00000068C005C00D11D0103840B20028B8BF10
:102C100000F00F0000F1E020ACBF90F8000490F845
:102C2000140D400908BF4FF0010901D04FF0000911
:102C30000C98007800284FF000001CBF0DB0BDE8D4
:102C4000F08FDFF854A2954D954C4FF0000B0B9090
:102C500025B100214FF4CB60AFF3008094F82E60D3
:102C600084F82BB04FF0000825B1002140F25D60E0
:102C7000AFF30080B9F1000F1DD13746012020EAE3
:102C800007068848402200EB871100EB86100AF007
:102C90004BFC25B1002140F2CD50AFF3008004EB96
:102CA000870104EB8600096A016225B1002140F228
:102CB000D150AFF3008025B1002140F26560AFF341
:102CC000008000F095FE074633466A460C99FFF7F0
:102CD00087F825B1002140F26B60AFF3008094F8D3
:102CE0002F00202814D020690099091A0902CA1758
:102CF00001EB126109120BD5DDE90021891A20F0E0
:102D00007F42084420F07F40CDE900204FF00108C9
:102D10004DB1002140F27560AFF30080002140F218
:102D20007B60AFF3008000980199C01BC91B20F0A5
:102D30007F4021F07F41B0F5800F05D28A4503D353
:102D4000B9F1000F0CD103E0B9F1000F38D094E0D5
:102D500033463A4669465448FEF7B6FB48EA00084F
:102D6000B8F1000F22D000980AF070FABDF80A10EE
:102D70009DF808204D4B1144491C4218984241D8F7
:102D8000494881425ADC404281425FDB581C9042F4
:102D9000DCBF02F5F702A2F1F85205DD002ABCBF44
:102DA000A2F5F70202F1F8520C98C26001200B90D4
:102DB000002D62D0002140F28E60AFF300805CE015
:102DC000BDF80A0008AA07A900F0BCFC94F82F007F
:102DD00020281CD02069401D20F07F40DDE9002123
:102DE000891A014421F07F41CDE900010AF02EFA51
:102DF000BDF80A109DF808202C4B11444A1C81187C
:102E0000984218D940F20961702001F0A9FCBDF880
:102E10000A0007F1090620B101F03EFC002808BFB6
:102E20003236234841780798814284BF081A064405
:102E300026F07F40D2E71C48824204DD40F20A615E
:102E4000702001F08DFC1B48824204DA40F20B61D5
:102E5000702001F085FC18488842DCBF01F5F701BD
:102E6000A1F1F85105DD0029BCBFA1F5F70101F181
:102E7000F8510C98C16001200B9094F82B008DF84C
:102E800010009DF8100000287FF4E2AE0B980DB002
:102E9000BDE8F08F04ED00E0FFFF3F000000000000
:102EA000240D0020A40C00200020A107FF7F841E19
:102EB0001200002000E05EF80080841E2DE9F14F32
:102EC000884D8CB095F82E00002009900120864C8A
:102ED0004FF00009A5F180078046089024B1002139
:102EE00040F2E970AFF300800898002837D000BFA7
:102EF00085F82B9024B1002140F2EE70AFF30080F2
:102F000095F82EA0402228EA0A0607EB861007EB68
:102F10008A1183460AF008FB24B1002140F2CD500B
:102F2000AFF3008005EB860005EB8A010090096A8B
:102F3000016224B1002140F2D150AFF3008095F836
:102F40002B008DF808009DF8080078B1002C1CBFFC
:102F5000002140F2F470C1D0AFF30080BEE76348B7
:102F6000002818BFAFF3008062B6C1E724B100218A
:102F70004FF4FF60AFF300800C981BF8100003289B
:102F800072D1DDF800A0CDF818A00C999AF82000B5
:102F9000884214BF4FF0000B4FF0010B0AF1200CD8
:102FA0008646202207EB861303E0024603EB42002D
:102FB0004078884202D020280AD0F6E7202807D09F
:102FC000864507D103EB4E0040788CF8000007E0FF
:102FD00048460CE003EB400003EB420140784870A8
:102FE00024B1002140F23750AFF30080404610EA90
:102FF0000B0F18BF8AF82380002852D024B100217B
:1030000040F2FD70AFF30080324601200C99FFF7CB
:103010008DF8069890F823008DF808009DF808A018
:1030200024B1002140F60800AFF3008030480028AA
:1030300018BFAFF30080EFF3108072B6089024B190
:10304000002140F60D00AFF3008095F82B008DF8BD
:1030500008009DF8080040B1002C1CBF002140F67C
:1030600011003FF43BAF77E71BE0BAF1000F08D047
:1030700095F82F00202804D131460220FFF786F86A
:1030800008B324B1002140F62500AFF3008095F885
:103090002E0028EA000085F82E0085F82B800120FC
:1030A000099024B1002140F62E00AFF3008008986B
:1030B00088B124B1002140F63200AFF300800998B6
:1030C0000DB0BDE8F08F002CF1D000214FF402606C
:1030D000AFF30080E6E70548002818BFAFF3008093
:1030E00062B6E6E7240D00200000000000000000AA
:1030F0000000000010B5202811D20E4991F82E30A2
:10310000A1F1800202EB831C1CF810303BB191F856
:103110002E3002EB831212F81020012A01D0002079
:1031200010BD91F82E2001460020FEF7FFFF012080
:1031300010BD0000240D00202DE9F84F804E804680
:1031400096F82E00A6F1800707EB801010F8180003
:10315000002868D096F82E907A4D25B1002140F6CF
:10316000C130AFF3008007EB891414F81800012870
:1031700018D0C0B204281CBF0528062858D02DB18D
:103180004FF0000140F6CD30AFF3008001F00EFCAF
:1031900025B1002140F6D130AFF3008014F81800BB
:1031A0000128E6D1012425B1002140F6D830AFF343
:1031B0000080002C42D0002086F82B0025B1002191
:1031C00040F6DD30AFF3008096F82EB0012020EA03
:1031D0000B0907EB8B1107EB891040220AF0A4F9C9
:1031E00025B1002140F2CD50AFF3008006EB8B00FB
:1031F00006EB890A006ACAF8200025B1002140F2D6
:10320000D150AFF3008096F82B008DF800009DF8A8
:103210000000D0B1002D1CBF002140F6E330C2D029
:10322000AFF30080BFE740F6B831702001F098FAA4
:103230004A4641460120FEF779FFA9E742480028A7
:1032400018BFAFF3008062B6B5E725B1002140F6A4
:10325000E730AFF300809AF821200AF121011446EB
:103260004FF0200B07EB89100AF1220A03E0A34676
:1032700000EB4B035C78444502D0202C2BD0F6E7C2
:10328000202C28D0A24204D100EB420040780870E4
:1032900005E000EB440100EB4B0049784170BAF1C6
:1032A000000F11D025B1002140F22F50AFF3008064
:1032B0009AF80000A04207D125B1002140F2325017
:1032C000AFF300808AF800B05DB1002140F23750C2
:1032D000AFF3008000E025B1002140F6EB30AFF302
:1032E00000801A48002818BFAFF30080EFF3108465
:1032F00072B696F82B008DF800009DF8000038B1EA
:10330000002D1CBF002140F6F1303FF44CAF87E7A1
:1033100086F82E90012086F82B0054B1002D08BFAE
:10332000BDE8F88F002140F6FE30AFF30080BDE825
:10333000F88F0548002818BFAFF3008062B6EDE7AC
:10334000240D00200000000000000000000000002C
:1033500070B50D46064601F08DF90F4890F82E2005
:103360000024803800EB821010F8141029B1611C81
:10337000CCB2202CF8D3202070BD084804EB4401C7
:1033800040F8316000EBC100214645600120FEF7A6
:10339000CDFE204670BD0000240D0020A4090020B1
:1033A0002DE9F04F83B000F023FB054600F0D6FD79
:1033B000674CA068B0F1FF3F1CBF4FF0FF30A0602A
:1033C000A07FDFF890B1A8B9D4E90301081A000280
:1033D000C11700EB116000124FF40C7109F063FF8C
:1033E00021690844281A0002C11700EB116000127D
:1033F000C00F13D0607E28B394F829008DF8000028
:103400009DF80000F0B100F0FFFB00BF94F82A0027
:10341000F0B140F24741702001F0A2F994F82F007A
:1034200094F82F1000EB40000BEBC000406801EB5C
:1034300041015BF83120082190474FF486617020EC
:1034400001F08EF9E81C20F07F4000F0D7FADDE7AC
:103450004FF0010A84F82AA094F82F00202824D0E5
:1034600094F82F80202084F82F0084F83000002664
:1034700084F8286084F8296037482660007802289C
:1034800016BF032801200020207794F82E7004EB4B
:10349000870999F82000202831D000EB40000BEB81
:1034A000C000817D012905D029E040F24A41702009
:1034B00001F056F9AB4600F10805408A01AA6946B9
:1034C00000F040F994F82F00202804D02069401D16
:1034D00020F07F400BE068890BF1090B28B101F067
:1034E000DBF8002808BF0BF1320B2BF07F40D5E949
:1034F0000021891A2860084420F07F40686039461E
:103500000120FEF743FE0028F9D0144800EB871095
:1035100010F81800022804D13A4641460620FEF76A
:1035200005FE84F82BA099F82100202803D00C4830
:10353000407801F0E5F9207F002804BF03B0BDE822
:10354000F08F00F055FD2677667703B0BDE8F08F69
:10355000240D0020A409002012000020A40C00204B
:103560001000002010B5324C82B094F82F102029A2
:1035700008D0A168B1F1FF3F09D040F6E9217020E1
:1035800001F0EEF840F6E821702001F0E9F86268F9
:103590000146284B50189A4204D940F20961702024
:1035A00001F0DEF8244A914204DD40F20A61702005
:1035B00001F0D6F8214A914204DA40F20B61702002
:1035C00001F0CEF81E498142DCBF00F5F700A0F102
:1035D000F85005DD0028BCBFA0F5F70000F1F85059
:1035E00001AA694600F0AEF89DF804000F288CBFD0
:1035F000012000200099084420F07F41A16094F848
:1036000029008DF800009DF80000002804BF02B0DA
:1036100010BD01230322052000F070FB00281CBF11
:1036200002B010BD40F6F121702001F099F80000C1
:10363000240D0020FF7F841E0020A10700E05EF81B
:103640000080841E70B51E4C202184F8201084F860
:10365000211084F82210002084F8230084F82E0022
:1036600084F82F10421EA2602060A07784F8280002
:1036700084F829002077607784F83010114984F8A5
:103680002C0084F82D00087048704880A4F1820155
:103690001022887001F8040F521EFAD10A4D01263B
:1036A00084F82A60FF202870084801F00BF9687040
:1036B00001F066F9A86000F0C9FC84F8316070BDC3
:1036C000240D00201200002010000020E91F00003F
:1036D00070B50546012000FA05F40E46002A08BF21
:1036E00008480CD0002000F097FCE90001F180416F
:1036F00001F5F831C1F81005C1F8146502480460FD
:1037000070BD000008F5014004F50140410B48F28E
:10371000376251430A0C094B510202FB030208486D
:10372000504300F586306E30400D5B4210FB03F3D2
:10373000B2EB532F88BF491C08447047F7C2FFFF04
:103740006F0C0100430B48F2376C03FB0CF330B4F1
:103750001B0CDFF844C05C0203FB0C030F4858430A
:103760004FEA505C04EB0C0043F609541CFB04F4D4
:1037700004F5807C43F60855A3EB5C2C2C440CF03C
:10378000FF0CB3EB542F84BF4FF0000C401C0860BB
:1037900082F800C030BC7047F7C2FFFF6F0C010019
:1037A0002DE9F041384CD4F80403DFF8E08010F440
:1037B000803F4FF400664FF0E0274FF000051CBF3C
:1037C000D4F84001002817D0C4F84051C7F88062EF
:1037D0002F480068D8F80010A0EB010020F07F40CF
:1037E000022802D3B0F5800F06D34FF48030C4F81E
:1037F00008030420FEF74CFFD4F8040310F4003F44
:103800001CBFD4F84401002817D0C4F84451C7F8AD
:10381000806220480068D8F80010A0EB010020F07A
:103820007F40022802D3B0F5800F06D34FF400305A
:10383000C4F808030520FEF72BFFD4F8040310F4A6
:10384000802F1ABFD4F848010028BDE8F081C4F8E1
:103850004851C7F8806210480068D8F80010A0EB03
:10386000010020F07F40022804D3B0F5800F38BF5C
:10387000BDE8F0814FF48020C4F80803BDE8F041B2
:103880000620FEF705BF000000B0004004B5004070
:1038900040B5004044B5004048B500402DE9F04136
:1038A0003A4D287804286CD0E81C0122017859B1DF
:1038B000012908BF6A7002D0697800295CD0022112
:1038C0000170407800F0E2FA314CD4F804034FF074
:1038D000000810F4002F4FF480764FF0E0271CBF53
:1038E000D4F84C01002808D04FF0030000F0CEFAC5
:1038F000C7F880620320FEF7CBFED4F8040310F46F
:10390000802F1CBFD4F84801002808D04FF00200D7
:1039100000F0BCFAC7F880620220FEF7B9FED4F8C6
:10392000040310F4003F1CBFD4F84401002808D061
:103930004FF0010000F0AAFAC7F880620120FEF7FC
:10394000A7FED4F8040310F4803F1ABFD4F8400156
:103950000028BDE8F0814FF0000000F097FAC7F8AA
:10396000806204202870C5F80880C4F80082BDE891
:10397000F0410020FEF78CBE4FF45A716C2000F02D
:10398000EFFEBDE8F0410720FEF782BE1C000020DC
:1039900000800040012213024FF0E0210020C1F816
:1039A000803101F5C071BFF34F8FBFF36F8FC1F846
:1039B00000310C494A60431EC1F808330A4B1860B5
:1039C000C1F840011B1D1860C1F844011B1D18609F
:1039D000C1F848011B1D1860C1F84C010A61034978
:1039E0004870704700800040408500401C00002067
:1039F000014800687047000004B500402DE9F05F01
:103A0000414E0446F71E96F800C0F868BCF1010F5D
:103A100004BFA042BDE8F09F4FF040413B4A116017
:103A20003B496FF48023C1F808333A4A4FF0000550
:103A3000BCF1000F57D06FF4A023C1F848331560D4
:103A4000C1F84451D1F848214FF0E0294FF0010866
:103A5000002A04BF4FF40062C9F880224FF480337B
:103A6000C1F80833C1F84833C1F840512A4AD2F8A6
:103A700000A0A4EB0A0A2AF07F4BBBF1020F3CD353
:103A80004FF0020ABBF5800F37D2C1F84045C1F8AC
:103A90004433BCF1000F05D01168411A21F07F4179
:103AA0000229F9D3C7F808803D70FFF773FF1B4860
:103AB0000560001DC0F800A01949042008601949DC
:103AC000C1F80C80BA68C1F800228101C9F88012DF
:103AD000C9F80011144A41071160FC60707086F843
:103AE0000080BDE8F09FC1F84833104B1D60C1F85D
:103AF00040511560C1F84451A4E7C1F8405540F267
:103B0000F1116C2000F02CFE1F00002008F5014090
:103B100000B0004044B5004004B5004004850040BA
:103B2000108500400080004004F5014040B5004091
:103B30002DE9F0412B4CE168814214BF01220022A3
:103B4000DFF8A4C09CF80070022F02D0002A38D001
:103B500003E0002A08BFBDE8F081627882B3234BFE
:103B60004FF080421A60224B9513C3F80853C3F8F4
:103B700048530026C3F840611E4AD2F80080A0EBEB
:103B8000080828F07F48B8F1020F24D3B8F5800F59
:103B900021D2C3F84005C3F844532FB11368CB1AA0
:103BA00023F07F43022BF9D3134B02214A071A60FB
:103BB000E06004208CF801008CF80010BDE8F08172
:103BC00004E040F2FF116C2000F0CAFD40F2032136
:103BD0006C2000F0C5FDC3F8406540F20F216C2059
:103BE00000F0BEFD1C0000201F00002008F5014071
:103BF00000B0004004B5004004F501400148C06831
:103C0000704700001C0000202DE9F04133486FF49C
:103C10008024C0F80843DFF8C8C0324A00219CF86D
:103C2000003063B16FF4A024C0F848431160C0F8BD
:103C3000441100BFD0F84801012280B909E0C0F862
:103C40004843294C2160C0F840111160C0F844116C
:103C5000F0E74FF0E0244FF40060C4F88002022B3C
:103C600004D040F21B216C2000F07AFD1F4E30681A
:103C70001F4CC01C20F07F40E3681E4D98420BD0C3
:103C80003768DF1B27F07F47042F05D3B7F5800F78
:103C900002D2FFF7B3FE1BE03068181A20F07F4015
:103CA000022813D3B0F5800F10D2134B4FF0804091
:103CB0001860A26021706A60EA604000191F086005
:103CC00004208CF801008CF8002001E0A260217033
:103CD000A068C5F80002BDE8F081000000B0004017
:103CE0001F00002044B5004040B5004004B500402E
:103CF0001C0000200080004008F501402DE9F0473D
:103D0000DFF874C101274FF000089CF800509CF8C0
:103D100001C007287ED2DFE800F0040404046A6AC8
:103D20006A00564CE668B6F1807F04BF6478002CC8
:103D300002D0022D05D03CE040F24E216C2000F074
:103D40000FFD4FEA8C0404F18046ACF10404240614
:103D5000A40D04F1804906F5004609F53049002418
:103D6000012D02D0022D11D020E0BCF1040F05D2AC
:103D7000D6F840A1BAF1000F18D104E0D9F840A15B
:103D8000BAF1000F12D14FF000440FE0BCF1040F64
:103D900005D2D6F840A1BAF1000F07D104E0D9F856
:103DA00040A1BAF1000F01D144F0804414F0804FDB
:103DB000D5D1334C00F1100C07FA0CFCC4F808C341
:103DC0008000204452B10764D0F840658D1B25F077
:103DD0007F45AA4298BFB5F5800F43D2C0F8401581
:103DE000012B08BFC4F804C30120BDE8F08735B13A
:103DF000844504D140F271216C2000F0B1FC001F19
:103E0000C0B2012B0CBF01240024032806D340F2CA
:103E10004B1100E02BE06C2000F0A2FCDFF864C046
:103E200000F1100307FA03F3CCF80833CCF8483359
:103E300080006044C0F840814AB1134D2E688D1B4C
:103E400025F07F45AA4298BFB5F5800F0AD2C0F889
:103E50004015002C18BFCCF80433CCF844330120B3
:103E6000BDE8F087C0F840850020BDE8F08740F24B
:103E700076216C2000F074FC1F0000201C00002044
:103E80000080004000B0004004B50040F8B50127B4
:103E9000002407284CD2DFE800F0040404041616BE
:103EA0001600264A00F1100107FA01F1C2F80813C2
:103EB00081001144C1F84045C1F84041204951F802
:103EC00020000090F8BD1F4D011FCEB2297879B1B6
:103ED0006A7882420CD11C4A4FF0404010600129A0
:103EE00008BFFFF757FD2C7018494FF08070C8606D
:103EF00006F1100007FA00F11548C0F80813C0F8E1
:103F00004813B00000F1804000F53040D0F8401573
:103F1000104A1268891A21F07F41022924BFC0F893
:103F20004045C0F840410C4850F826000090F8BDCC
:103F300040F2EF216C2000F013FC000000800040F4
:103F4000408100401F00002008F501401C000020B7
:103F500000B0004004B5004040B100401E496FF47D
:103F60008023C1F808331D481D4A90F800C0002086
:103F7000BCF1000F0AD06FF4A023C1F848331060E1
:103F8000C1F84401D1F8481181B909E0C1F84833BA
:103F9000144B1860C1F840011060C1F84401F1E70A
:103FA0004FF0E0224FF40061C2F880120E494FF04A
:103FB000FF32C1F808230D4A1060C1F84001121DFC
:103FC0001060C1F84401121D1060C1F84801121DB3
:103FD0001060C1F84C01704700B000401F00002085
:103FE00044B5004040B5004000800040408500409E
:103FF000084890F902000028B8BF704700F01F0180
:10400000012202FA01F14009800000F1E020C0F82D
:10401000001270471C00002010B507280DD2DFE801
:1040200000F00404040406060600064902E0001F2E
:104030000549C0B201EB800010BD40F29A216C200E
:1040400000F08EFB4081004040B1004070B519483F
:10405000002404210470C01E01708905C160FFF7AF
:1040600099FC01254FF0E02CEB02CCF88031BFF336
:104070004F8FBFF36F8FCCF880320F4A5560956039
:104080000E4801680029FCD1481EC2F80803C2F896
:1040900048030B480460C2F84041001D0460C2F8A8
:1040A0004441001D0460C2F84841CCF8003115605D
:1040B00070BD00001F00002000B0004004B50040AB
:1040C00040B500402DE9F041164C607A002827D019
:1040D0004FF480718D05284609F009F980464FF4A8
:1040E0008271284609F003F900260746B8F1000F4F
:1040F00009D00120C5F80803207920B12671E069B4
:1041000008B18047E66137B1C5F804610220C5F8FF
:10411000080300F06DFA4046BDE8F04100F05AB8DF
:10412000BDE8F0812C00002010B509F08AF930B903
:1041300009F0A8F918B909F0DBF9002802D0024902
:104140000220086010BD0000340C004070B500F083
:1041500087F900F0A1FA094C4FF0804530B1FFF724
:10416000E3FF012028610420A07204E00320A07274
:104170000120C5F804030020E07170BD2C00002070
:1041800070B5134CA079F0B1012803D0E179401E3D
:10419000814218DA00F080FA054600F051FBA1795F
:1041A000012902D9E179491CE1710DB1616900E091
:1041B0002169411A022902DA11F1020F07DC0DB15F
:1041C000606100E02061BDE87040FFF7BFBF70BDD7
:1041D0002C0000202DE9F04706464FF080454FF4B3
:1041E0008671284609F083F880464FF48871284686
:1041F00009F07DF8274C8246277804F1080009F081
:10420000EAF810B14FF4D57116E04FF0010946B14C
:10421000A07A032805D10420A072FFF785FFC5F816
:1042200010900026B8F1000F18D0C5F80C61A07AE4
:10423000042804D04FF4DE716D2000F091FA09F0EB
:1042400000F928B909F01EF910B909F051F908B1BF
:10425000114806600220A07200F0E6F8BAF1000FE3
:1042600008D0C5F81061A07A022801D1FFF788FFB5
:10427000C5F814903FB12670A07A022801D1FFF74B
:1042800065FF00F0D1F8BDE8F0470248083009F0BA
:10429000B9B800002C000020340C00402DE9F04794
:1042A0005C4C4FF000080646C4F8188043788278CA
:1042B0000078E07263710127A271BD0784F807805E
:1042C000052824D2DFE800F00F03051F2100A761B5
:1042D00009E000F0C5F80121284609F00DF8002892
:1042E000F9D00220A06109F033F8B0B100F0EEF986
:1042F000217E01F0030188420FD1B07950B1022034
:10430000C5F804036AE04448ECE74448EAE74FF4A0
:104310004C7149E000F0AEF960E0EF604FF4827A52
:10432000C5F80481A069C5F8180509F076F840B908
:1043300009F07DF828B909F091F810B909F0A2F850
:1043400038B14FF080513648D1F84412C1F34231B0
:10435000016009F062F840B909F069F828B909F07C
:104360007DF810B909F08EF810B12D4810300760B3
:10437000AF600220C5F80403B07978BBD5F8040318
:1043800010F0020F0ED0DFF89C90D9F80010C9434E
:1043900041F30017D9F8001041F01001C9F80010DE
:1043A0007F1C07E040F2F1216D2000F0D9F900BF39
:1043B00000F0FCFA5146284608F099FF0028F7D093
:1043C00000F058F92FB9D9F8001021F01001C9F800
:1043D00000100220C5F80803C5F80481A07970B167
:1043E000307860B900F058F9064600F029FA6FF00D
:1043F000004216B1C4E9042001E0C4E9040201212D
:10440000284608F079FF08B100F040F984F80A80E6
:10441000BDE8F0872C00002001000200010003002D
:104420003C05004010ED00E010B5EFF3108472B6CB
:104430000A48417829B14178491E4170417829B133
:1044400008E040F20D116D2000F08AF9807808B97B
:1044500000F030F9002C00D162B610BD2C00002015
:1044600010B5EFF3108472B606484178491C4170CC
:104470004078012801D108F056FF002C00D162B627
:1044800010BD00002C000020054810B5C17821B1F6
:1044900000210171C170FFF7C7FF002010BD0000AF
:1044A0002C00002070B50C4CE17861B90125E57055
:1044B000E061FFF7D5FF00F0EFF830B1E06910B12F
:1044C00080470020E061002070BD4FF080402571E2
:1044D000C0F80453F7E700002C000020EFF3108031
:1044E00072B604498A78521C8A70002800D162B6DC
:1044F000704700002C00002010B5EFF3108472B656
:104500000A48817829B18178491E8170417829B1A2
:1045100008E040F225116D2000F022F9807808B9FA
:1045200000F0C8F8002C00D162B610BD2C000020AD
:104530002DE9F04104006FF015003CD021780429EA
:1045400039D80029617838D0002934D1A1780029E0
:1045500031D1002008F096FE002008F086FE4FF0D2
:1045600080484FF0FF31C8F808130026C8F80061F2
:10457000C8F80461C8F80C61C8F81061144F7E7067
:10458000A088B88108F0C6FE012508B1FD707D70D5
:104590000121404608F0B0FE08B100F077F820464F
:1045A000FFF77CFE7D72002008F05FFE4FF0E021F7
:1045B0003046C1F80051BDE8F0810029FBD0202928
:1045C000F9D8A1782129F6D80129C2D1F3E7000052
:1045D0002C00002001488089704700002C0000203A
:1045E0000248807A002800D0012070472C0000206B
:1045F000F8B51F4DE87A00280FD1287E00F003009F
:1046000008F096FE002808D0EFF3108172B6FFF78D
:10461000E7FF18B1002900D162B6F8BD0126AE72DD
:1046200001B962B618204FF08044C4F80803A661AF
:104630004FF42070ADF80000BDF80000411EADF849
:104640000010F9D20027C4F80C71C4F810710848A2
:10465000083008F0D3FE2F70FFF778FD66616879A7
:1046600000F07F00C4F838051820C4F80403F8BD32
:104670002C00002010B5044C207E00F0030008F050
:1046800057FE0028F8D010BD2C0000200149012061
:10469000087070477C0200204FF08040D0F8000185
:1046A00018B903480078002800D0012070470000A6
:1046B0007C0200204FF08040012141600021C0F8C1
:1046C00000110148017070477C0200200248006818
:1046D00000F00300704700001C04004010B531B129
:1046E000012907D040F2023105A000F00FF8D0F800
:1046F000140401E0D0F8080400F0010010BD00002F
:104700006E72665F636C6F636B2E6800024A52685C
:1047100002B11047FEE700004C000020064810B52B
:104720000021016001210160084608F028FEBDE873
:104730001040012008F016BEFC1F0040074810B5CD
:1047400001214160891EC0F808130C2008F017FEF3
:10475000BDE810400C2008F005BE000000C000407D
:10476000FEB5104A5568E5B1002203466E460A249C
:1047700003E0B0FBF4F0521CD2B20028F9D1B054DF
:104780000AE000BFB3FBF4F004FB1030B3FBF4F31A
:10479000521ED2B23030B054002AF3D13046A8476E
:1047A000FEBDFEE74C00002070B5174C06460D46D6
:1047B000607810B14FF0FF3070BD06B9134E6260E3
:1047C0002570FFF7ABFFFFF7B9FF3046FFF7B0FEEC
:1047D0000600F1D1FEF736FFFFF70AFF08F01CFDD7
:1047E000284608F0BFFD0120002D09DB05F01F0160
:1047F00000FA01F16A09920002F1E022C2F8001108
:104800006070304670BD00004C000020A0D3000056
:1048100001484078704700004C000020074890F99C
:104820000000002809DB00F01F020121914040092F
:10483000800000F1E020C0F8001270474C0000201A
:104840002DE9F04101264FF0E02231034FF000083E
:104850004046C2F88011BFF34F8FBFF36F8F164CE5
:10486000C4F800010C2008F0A9FD144D2868C043CD
:1048700040F30017286840F010002860C4F8046373
:1048800026607F1C02E000BF00F090F8D4F8000121
:104890000028F9D01FB9286820F0100028600848C7
:1048A00005686660C4F80863C4F800810C2008F04D
:1048B00085FD2846BDE8F08100C0004010ED00E015
:1048C00008C5004010B5024605200C4904E000BFB1
:1048D00001EBC0031B7933B1401EC0B2F8D24B21AB
:1048E0006920FFF73DFF41F8302001EBC0010022B5
:1048F0004A718A7101220A7110BD0000580D002012
:1049000010B5052801D35A2106E00A4901EBC00081
:104910000179012903D05B216920FFF721FF41794B
:104920008279491CC9B28A4200D04171BDE8104069
:10493000FFF774BF580D002070B505250E4E0F4CC3
:1049400016E0217806EBC1000279012A08D14279EC
:1049500083799A4204D04279827156F831008047B7
:104960002078401CC0B22070052801D300202070A0
:104970006D1EEDB2E5D270BD580D00207D02002005
:1049800000B508F04AFD40B908F051FD28B908F01B
:1049900065FD10B908F076FD08B1024800BD024877
:1049A00000BD00000C05004000E7014010B508F014
:1049B00069FD30B3EFF31080C8B1002172B6124820
:1049C00002680368C2F3001243F0100303604FF063
:1049D000E023D3F80042D3F804321C4300D040BF98
:1049E00020BF00BF00BF00BF00BF12B105E0012122
:1049F000E4E7026822F010020260002900D062B6EB
:104A000010BD20BF10BD000010ED00E0F5D6000085
:104A100011D70000FFD600000BD70000F9D6000028
:104A2000F3D60000F1D6000017D7000005D700002C
:104A3000EBD60000E3D60000E7D60000DDD600008C
:104A400001480068006800475400002001480068E1
:104A50000069004754000020014A1268926810471C
:104A60005400002001480068C0680047540000203E
:104A7000014A126852681047540000200149096831
:104A8000096A084754000020014800787047000078
:104A90007E0200201FB5174C207A022800D2022087
:104AA0008DF80100E079032800D203208DF8000082
:104AB000A079ADF804006079ADF80200684606F010
:104AC000D5FF08B1802110E0E068029002A806F04E
:104AD000E3FF08B1842108E007480068039003A8B9
:104AE0000BF0FCF9002803D08821032000F014F912
:104AF0001FBD0000800D0020044E00007CB5044660
:104B00000E4600F1030020F003004FF00001CDE954
:104B10000001317815008DF8051000D0002001A9A2
:104B200000F0EAFA009908440C490090C97849B1AC
:104B3000317C39B1252205B1002000F025FD009916
:104B4000084400902A463146684608F0E6FD009881
:104B5000C01D20F007000090001B7CBD5800002005
:104B600010B528B11422044908F0DEFC002010BD65
:104B70006FF0150010BD0000204E000070B503005E
:104B80006FF02C0003D1284C63780BB1801170BDFD
:104B900019B36FF015058AB3244B0B293ED2DFE819
:104BA00001F03D06090C10131D2518282E00107861
:104BB000187028E01078587025E01068C3F80500D8
:104BC00021E01068D8601EE011780029DFD19970CB
:104BD00019E011780029DAD1D97014E0E07810B129
:104BE000107802281AD3107818740CE010885882B4
:104BF00009E011780029CAD1197104E00EE010789B
:104C000002280BD31875012208490020FFF776FF10
:104C1000B0F5803F04DB6FF00B0070BD284670BD1F
:104C20000121A17070BD000058000020800D0020FF
:104C300070B50C46050019D0C4B100F025F9C0B11B
:104C40002846FFF73FFE0C4D00220C4928702046F5
:104C5000FFF754FF0BF043FD0021287807F01AF905
:104C6000FFF718FF01206870002070BD6FF015007D
:104C700070BD4FF0FF3070BD58000020800D002047
:104C800030B587B005000CD0FFF7C2FD4FF0FF3400
:104C900020B1FFF79FFCB0F5FA7F05D9204607B099
:104CA00030BD6FF01500FAE7154C1648656000F04E
:104CB000E5F900206070A070E07001461822684697
:104CC00008F0ACFC18221049684608F02DFC1822A8
:104CD00069460E4808F028FCEFF3108472B60C48C1
:104CE0006FF00C0100F0F2FC0A4800F0B3FD18B1BF
:104CF0009621032000F010F804B962B60020CEE738
:104D000058000020954A0000084E0000800D002049
:104D100000C00040B54E00000EB572B6154A556889
:104D2000D5B1002203466E460A2403E0B0FBF4F03E
:104D3000521CD2B20028F9D1B05409E0B3FBF4F010
:104D400004FB1030B3FBF4F3521ED2B23030B05437
:104D5000002AF3D13046A847BFF34F8F06480168B9
:104D6000064A01F4E06111430160BFF34F8F00BFB9
:104D7000FDE70000580000200CED00E00400FA05FB
:104D8000064810B581784078014302D04FF0FF30DB
:104D900010BD06F0D7FE002010BD00005800002016
:104DA000064810B581784078014302D04FF0FF30BB
:104DB00010BD0BF040F9002010BD0000580000208D
:104DC000064810B581784078014302D04FF0FF309B
:104DD00010BD07F093F8002010BD0000580000201F
:104DE000074810B581784278114302D04FF0FF3068
:104DF00010BD0121C17007F06FF8002010BD000048
:104E0000580000200100000001010100001B1B03ED
:104E1000020000004C1D000003001F000000000005
:104E2000DFC04ED61F7C66090AF52BA098F24364BA
:104E300062C5A62A054A10B5526812B1BDE81040F5
:104E4000104783210420FFF767FF0000980D002022
:104E5000054A10B5126812B1BDE8104010477D2117
:104E60000420FFF759FF0000980D0020054A10B5F7
:104E7000926812B1BDE81040104789210420FFF765
:104E80004BFF0000980D00200548016829B14168DA
:104E900019B1806808B101207047002070470000F8
:104EA000980D002002490DC881E80D0000207047D0
:104EB000980D0020F8B5124C0026256811E00098E6
:104EC000022802D003280CD106E0206810B100208F
:104ED000266005E028210CE0206868B101202660EA
:104EE000A847684600F088FC0028E8D0052805D0CF
:104EF00035210420FFF710FF2D21FAE7F8BD00004F
:104F00006000002070B5144C0546207840B1A278AE
:104F1000611C2846921C08F007FB0020207013E05B
:104F20000E4806F0B1FE00280FD00C480078142877
:104F300004D10A213E2008F048FC38B10749284630
:104F400008F0A1FC002800D0012070BD03492846CC
:104F500008F0D6FEF8E70000AC0E0020A40D0020FB
:104F600070B50A7882703AB3012A25D813230370EA
:104F700000230AE001EB430400EB4305A678EE7042
:104F80006488240A5B1C2C71DBB29342F2D30023A9
:104F90000BE000BF01EB430500EB43042E79667183
:104FA000AD882D0A5B1CA571DBB29342F2D30121BF
:104FB00001EB8200C0B270BD002070BD01210C4A1F
:104FC00040280CD2202803D8401E8140106802E0FF
:104FD000213881405068014207D100207047FF28E6
:104FE00003D0403881409068F5E701207047000009
:104FF000640000200121401E81400448C068014235
:1050000001D001207047002070470000640000209C
:1050100001490068C86070476400002004490268C4
:10502000406842F48C220A60024A1043486070478C
:1050300064000020F807400201490068886070475A
:105040006400002005484FF0FF310160C90C416049
:10505000002181601F21C1607047000064000020B2
:1050600010B5FFF7EFFF0AF0BFFF044602480068E3
:1050700000B18047204610BD74000020014908603F
:10508000704700007400002002210180418000214F
:105090000171DF21417144F6C061C1800149816025
:1050A00000207047D61F7C663EB50446694609F06D
:1050B000E1FA70B140F25A2108E000BFBDF80400E7
:1050C000214600F0A7F820B140F25F211720FFF73A
:1050D00023FE684600F050F80028EFD03EBD0000E7
:1050E00010B520B14FF4D6711720FFF715FE014817
:1050F000007810BDB00F0020F8B5054608784A7852
:10510000904202D940F263110AE000955DB1002699
:10511000E81C4C7820F00300A84206D040F2791138
:105120001720FFF7F9FD0126F2E7124F31466846D6
:105130003C7000F0E1F8002003460099C91C21F002
:105140000301009166B907EB80029160002105E040
:10515000D2F808C04CF82130491CC9B2A142F7D39B
:105160000099401C01EB8401009110F0FF00E4D095
:10517000481BF8BDB00F002070B5044609F0CFFA07
:1051800008B1102070BD257800F0F2F802460C48F6
:10519000618800EB85000EE0836853F8213043B14D
:1051A0004A1C6280A180806850F82100A060002025
:1051B00070BD491C89B29142EED36180052070BD5B
:1051C000B00F00202DE9F04149B9114C00273B46B2
:1051D0004FF6FF7604EB810514F801C00DE00020C6
:1051E000BDE8F081DC19D5F808E0A4B25EF824E04F
:1051F000BEF1000F04D05B1C9BB29C45F2D8344634
:1052000004802046B442EAD0BDE8F04100F02CB85A
:10521000B00F002070B50646A0F57F4043F20205AE
:10522000FF381AD009B1072070BD304600F054F89D
:10523000040012D00A482146026830469047094DC2
:105240000020A96841F8260000F088F802462146AF
:10525000686809F0F9F9002070BD284670BD0000AB
:1052600084530000B00F00202DE9F04190460E4617
:10527000074609F00FFA48B1154800EB8605A86803
:1052800050F8270028B14FF49D7114E040F2391115
:1052900011E06868002818D0304600F05FF8014639
:1052A000686809F083F904000ED0A86840F8274028
:1052B00026B140F245111720FFF72EFD0548424662
:1052C00021460368384698472046BDE8F081000033
:1052D000B00F00208053000070B50C46054609F061
:1052E000D9F9002805D0034800EB8400806850F805
:1052F000250070BDB00F00202DE9F843164E8846FA
:10530000054600242868C01C20F0030028602046C1
:1053100000F024F8315D4843B8F1000F01D00022BD
:1053200000E02A680146009232B100274FEA0D00E2
:1053300009F069F91FB106E001270020F8E706EB44
:105340008401009A4A602968641C0844286014F0AB
:10535000FF04D7D0BDE8F883B00F0020034931F82F
:1053600010004FF6FC71C01C084070477C530000D1
:105370000148007870470000B00F0020E0010000F5
:10538000A9E6000013F700002DE9FF4F264C8046E8
:1053900081B020689A46934658B1027A424503D9B3
:1053A000416851F8280040B143F2020005B0BDE861
:1053B000F08FA5211820FFF7AFFC1946029809F0DD
:1053C0008BF986B258460E9909F07DF985B27019AD
:1053D000001D87B22068A1463946006809F0E6F84A
:1053E00004001FD0678025802946201D0E9D07469A
:1053F0005A460123009509F039F82088314638448F
:105400000123029ACDF800A009F030F82088C119D4
:10541000384609F05CF8D9F800004168002041F8EE
:105420002840C3E70420C1E77800002070B5144C81
:1054300023688BB1197A814212D95A6852F8201028
:1054400071B1002542F820504A88186809F0FCF82C
:10545000216800200A7A0CE0C8211820FFF75CFCC4
:1054600043F2020070BD4B6853F8203033B9401C42
:10547000C0B28242F7D8086809F0DBF8002070BD9E
:10548000780000202DE9F0410D46040090464FF0D1
:10549000000609D00027E01C20F00300A04205D040
:1054A00086211820FFF738FC0127F4E7CDB111461B
:1054B000002009F0A8F80C3000EB85068FB90A4FE0
:1054C00004F10C00AA003C602572606000EB8500CE
:1054D00020600021606808F0A1F84146386809F0B2
:1054E00092F83046BDE8F0817800002070B5084D94
:1054F000286800280AD0002404E02046FFF796FF21
:10550000641CE4B22868007AA042F6D870BD00009E
:1055100078000020094910B502460968002049B109
:105520000B7A934205D9496851F82210002900D01E
:10553000081D10BDEE211820FFF7EEFB78000020BB
:105540000A4910B502460968002059B10B7A934206
:1055500007D9496851F82210002902D031F8040B0C
:10556000084410BDFC211820FFF7D6FB780000206E
:1055700001484078704700007C00002001484068E6
:10558000704700007C0000202DE9F8430C460746D8
:1055900016461C2110460D46224608F0C2FF8046E2
:1055A00057B13846414632462B46009408F05EFF1C
:1055B00003484760047046704046BDE8F883000029
:1055C0007C0000200248427801784068FFF7DCBF89
:1055D0007C000020094910B507480860084B1120DD
:1055E00003EBC0040022C4F81025C4F81425401CA5
:1055F000C0B21428F4D310BD0000FEFF08F501402E
:1056000000F0014070B520240021012320FA01F2AE
:10561000D20720D04AB2002A10DB00BF4FEA521650
:105620004FEA860602F01F0506F1E02603FA05F5AB
:10563000C6F88051BFF34F8FBFF36F8F0BDB02F0C3
:105640001F054FEA52124FEA820202F1E02203FAEA
:1056500005F5C2F8805201F10101A142D6D370BD17
:1056600070B542004FF0000101D5144A1160C0F33B
:105670008032C0F3C0339A4203D066211B20FFF76B
:105680004BFB10F4404F14D00D4A01205060831E94
:10569000C2F808330B4A9060C2F80012C2F808330F
:1056A000094C2160251D28609060C2F808332160F4
:1056B0002860BDE87040FFF78DBF000004E50140A1
:1056C00000E0004000F0004000F5004070B50A4CDA
:1056D0000D462060FFF7C4FF2068FFF793FF00F03E
:1056E00077F8FFF777FF09F00FF8284600F0AAF8DF
:1056F000BDE8704000F0C2B8840000202DE9FC5FD6
:105700002F4E83463068019001272E4807F063FE34
:10571000DFF8B08020B9002708F1010007F072FE21
:10572000294C00254FF0030901206060C4F80051A6
:10573000C4F80451C6F800B02060DFF890A017E06C
:10574000DAF80000C00613D50E2008F0CEFFEFF304
:105750001080009072B6C4F80493D4F8000120B908
:10576000D4F8040108B9FFF721F9009800B962B62E
:10577000D4F8000118B9D4F804010028E0D0D4F816
:1057800004010028D0D137B10198306008F1010040
:1057900007F021FE11E008F1010007F01CFE0028CF
:1057A000BAD1C4F80893C4F80451C4F800510E20CB
:1057B00008F09BFF034807F025FE0020BDE8FC9F92
:1057C00004E500407F02002000E0004010ED00E012
:1057D00010B5084807F012FE08B1242106E005487C
:1057E000401C07F00BFE002803D028211D20FFF7E6
:1057F00093FA10BD7F02002070B511490A68EAB122
:1058000000231D4601244A68521C4A600C2A00D31A
:105810004D600E7904FA06F20E6816420BD0EFF3D3
:10582000108372B60C6894430C6003B962B6496881
:105830000160002070BD5B1C0C2BE4D3052070BD03
:10584000880000200248002101604160704700008C
:105850008800002010B5084C617809B10F2010BDF8
:10586000FFF730F82070FF2801D0002010BD76210E
:105870001F20FFF751FA000090000020014900208E
:1058800048707047900000200648074A818C528873
:10589000914204D190F8220008B100207047012005
:1058A00070470000341100206C020020014948803C
:1058B000704700006C0200200848094A818C528819
:1058C000914209D14FF6FF71818410F8221F19B15E
:1058D0000021017001207047002070473411002022
:1058E0006C020020074810F8221F012907D001216F
:1058F0000170054803490088888401207047002012
:1059000070470000341100206C0200200649074B4C
:105910008A8C5B889A4205D191F8222012B10160ED
:105920000120704700207047341100206C020020D5
:1059300009498A8CA2F57F43FF3B02D00021016018
:1059400007E091F822200449012A02D001600120D9
:105950007047002070470000341100200149088082
:10596000704700006C0200200549002081F82200E9
:105970004FF6FF7088840349088048807047000014
:10598000341100206C02002005498A8C824205D126
:10599000002081F822004FF6FF70888470470000D5
:1059A000341100200A4A10B1012807D00EE05078C7
:1059B00060B1D2F802000860D08804E0107828B105
:1059C00090680860908988800120704700207047A7
:1059D00081020020084A012338B1012804D1137044
:1059E0000868906088889081704753700868C2F892
:1059F00002008888D080704781020020064910B1DB
:105A0000012802D005E0487800E0087808B10120BC
:105A1000704700207047000081020020014948744F
:105A2000704700009209002078B513494A7C0AB3F8
:105A30000A7C8DF80020009A00929DF80020CAB1DF
:105A4000002301F110021F24A1F152050E7C8DF8F4
:105A50000060009E00969DF800604EB11370437088
:105A60000470D5F85A604660D5F85E608660EDE750
:105A7000012078BD002078BD9209002010B50446B1
:105A800000F066F918B1BD212720FFF745F903485A
:105A9000012109F013FA0248C46210BD7009002008
:105AA000AC0000200149012088717047AC00002043
:105AB0002DE9F84F6B4D0A9C2E78EEBBE2B3DBB3B9
:105AC000D4B305F11406C5E90E0186E81C000027D1
:105AD000AF716F71EF70AF702F71AF81EF8100F018
:105AE0007BF9064600F072F9044606F0B5FE06F0B2
:105AF000A5FB94F96E0006F039FF04F1180007F0D9
:105B00000FF8206907F002F896F8230007F022F852
:105B10004FF0010B94F86A10002006F069FD002890
:105B20007ED0514806F0D8FD2088FFF709FD286394
:105B30002088FFF7EFFC00E00AE0686394F8770044
:105B40008DF80000009800909DF8000018B112E058
:105B50004FF48A7182E0206F68B1708EB1888842FC
:105B600009D1B4F8741001220844708694F87600C4
:105B7000216FFDF7ADFD06F16801DFF8F09091E8C7
:105B80000E1009F1080888E80E10B16FC9F821104D
:105B9000F16FC9F8251000F08DF90146208FBA4643
:105BA00008F077FFA18E814200D208462872A846ED
:105BB00094F86B10E08FF77CA58F082900D10421A1
:105BC00008F067FF0FB9001D80B2854200D2284659
:105BD000C0B288F80900F27C02B104221044C0B2BD
:105BE00088F80700B4F85410091D814202D240F22F
:105BF0009F1133E0B07CB0B11C48083080F818B079
:105C0000D6E91612C0E9041294F86A0008F006FEFC
:105C100016490346FB220831002006F059FB00E03C
:105C200018E006F08BFB012000F094FB10480068A0
:105C3000032811D00B280FD0484640F852AFC0F8C7
:105C400004A00A48B188523041802188018096F82A
:105C500023100171BDE8F88F40F2C7112720FFF72C
:105C60005BF80000AC000020D86400004009002070
:105C7000501500402DE9F047054600F0ADF8334ED1
:105C80000446706A47780DB1012D03D1716B07F09E
:105C900074FD707070784FF000084FF0010950B13A
:105CA00001281AD0022834D0032848D040F21441E9
:105CB0002720FFF731F8012D32D000F0E7F8394600
:105CC0000122706B08F033FA28E000BF84F80880E6
:105CD00031E000BF84F808902DE0012D08D000F0DD
:105CE000D5F839460022706B08F021FA022D0BD04E
:105CF000D4E91801401C41F10001C4E91801207ADF
:105D0000012803D084F80890BDE8F08784F8088063
:105D1000FAE7012D04D0706B08F043FC022DF3D09C
:105D2000D4E91801401C41F10001C4E91801207AAE
:105D30000128CFD1CAE7BDE8F04705F021BC012D0D
:105D4000E2D0706B08F02DFCF5E70000AC000020FD
:105D50000448007808B10C207047034900204874BB
:105D600070470000AC00002092090020124808B5DE
:105D7000017839B10078012806D040F2DF112720E0
:105D8000FEF7CAFF00F0CEF900F020F890F8771087
:105D90008DF80010009900919DF8001000290AD19B
:105DA000016F002907D090F876000022BDE8084076
:105DB0001146FDF78DBC08BDAC000020024A938956
:105DC0000343938152691047AC00002001484068AA
:105DD00070470000E40000200148406878307047B8
:105DE000E4000020014A002152691047AC00002065
:105DF00070B5FFF7F1FF0446FFF7E8FF05462146BF
:105E000008F00FFF95F82610012914D1002812D0B0
:105E1000094901204A682988A2F88A11617A82F822
:105E20008C11A17A82F88D1102F5C4721070BDE850
:105E3000704005F0A5BB70BDE400002070B50546BC
:105E400001291CD8104CA1698847C0B16079B0B94C
:105E5000012D16D104F110000078C10605D4E16AC5
:105E60000978C90601D4012100E00021A26A1AB90B
:105E700062890AB1C00602D5A089014301D0012080
:105E800070BD002070BD0000AC00002010B5084CB3
:105E9000A06A38B16289616AD21C07F045FBA06A2A
:105EA000606210BD40F25A412720FEF735FF000026
:105EB000AC00002010B5FFF789FF0446FFF78CFF08
:105EC000417B0A4A242908D0807B242805D094F8F5
:105ED0006A00042800D1082010BD506890F82611EF
:105EE00094F86A00BDE8104008F0A6BCE400002069
:105EF0002DE9F84389460646FFF76EFF584C002708
:105F000005468DF800702078022804D040F2B9418F
:105F10002720FEF701FFA07B400606D44020FFF7B4
:105F200061FFE08940F04000E081E87C4FF001082B
:105F3000C6B306F033FA06F017FA68B9E87C58B130
:105F4000606A417841B10078297AC0F3C000884284
:105F500002D184F8028064E0606A4178618121B1F5
:105F6000606B08F0EBFAA06200E0A762E08940F401
:105F70008070E081606AE9790078C0F3800088422F
:105F800005D000F063F9E08940F48060E081606A48
:105F9000297A0078C0F3C00088420ED1684600F02C
:105FA00017F90AE0FFE708B106F0F2F9E078401CC3
:105FB000E070E08940F40070E081A87CA0B1FFF7B8
:105FC00005FF284981F81880D5E91623C1E9042383
:105FD00090F86A0008F022FC0346FB2221490020C9
:105FE00006F076F906F0AAF91E4D4A35B9F1000F10
:105FF00004D1E1780120FFF721FFB0B106F064FD84
:106000009DF8000010B10020FFF734FE36B1E770B4
:106010006879401C6871FFF7EBFE02E0A879401C2C
:10602000A87100F07FF8BDE8F8839DF8000010B17A
:106030000120FFF71FFE002000F08CF99DF8000002
:1060400010B10220FFF716FE36B1E7706879401CE8
:106050006871FFF7CDFEE6E7A879401CA871E2E77A
:10606000AC000020480900202DE9F0478846814611
:10607000FFF7B2FE294D04462878012804D040F2EB
:1060800069412720FEF748FE60780026012720B1ED
:10609000667000210420FFF791FE296A0878C0434A
:1060A000800709D1A07988BB0220FFF787FE286A04
:1060B0000078C043800729D0286A407810B10220B8
:1060C000A07100E0A771E07CA0B1FFF77FFE14494A
:1060D0006D7A0E76D4E91823C1E9042390F86B0099
:1060E00008F09CFB03462A460D49012006F0F0F813
:1060F00006F024F938EA090004D000210846FFF729
:106100009DFE28B1BDE8F04700F00CB80320D7E7AA
:10611000BDE8F047002000F0DFB80000AC00002030
:106120004809002010B506F0CFF906F087F80D4CAD
:10613000E089FFF757FEE2696179A07890470A4845
:10614000407C58B10848523850F8521F816041686D
:10615000C16005480121017405F012FA0020207089
:1061600010BD0000AC00002092090020084810B5C6
:106170000078022804D040F217212720FEF7CCFD3A
:1061800004490120C871BDE81040FFF7CBBF0000F3
:10619000AC0000209209002030B40C4B42B9DA79EF
:1061A000FF2A05D190F86B2090F86A40A2420BD0EC
:1061B00031B1DA7990F86B1030BC104606F0B8BCFB
:1061C000FF2290F86A10F7E730BC7047AC0000205F
:1061D00070B50646FFF700FE1B4A04460125516ACA
:1061E000087800F0030001280CD002280AD0032808
:1061F00021D16570D08940F40060D0810120FFF783
:10620000DDFD18E04878B0B1D18941F40061D18159
:10621000916A002909D0FB2808D8907920B1BDE8FF
:1062200070402020FFF7DEBD357070BD507940F022
:106230001000507170BD207A012801D0257270BD08
:106240000020207270BD0000AC00002070B5FFF788
:10625000C3FD04468079002827D002280DD11848B4
:10626000006B07F03DFF08B3D4E91601401C41F173
:106270000001C4E9160105F083F90025A571A07895
:10628000012670B1A570FFF717FB90B1002108201F
:10629000FFF794FDD4E91601401C41F10001C4E967
:1062A0001601E079012809D0E67170BD40F2AF31E6
:1062B00001E040F2C7312720FEF72EFDE57170BDE9
:1062C000AC00002003480078002801D0FFF72ABF67
:1062D00070470000AC0000202DE9F0410746FFF7B1
:1062E00075FD8046FFF778FD174C05463A46E06A93
:1062F000606201214046FFF74FFFE87C002678B13D
:10630000124806F039FB12480676D5E91812C0E9A2
:1063100004120E49606A05F063FF05F075FF04E0A2
:10632000606A06F029FB05F089FF17B9304606F0D0
:10633000DBF9002198F86A20084606F0A7FB022046
:106340002070BDE8F0810000AC0000204008002073
:10635000480900202DE9FC470446FFF73DFD0546AE
:10636000FFF734FD0646DFF8649122460021FFF76F
:1063700013FFA8794FF000080127A9F1200440B1CC
:1063800001281FD0022830D003283CD04FF42D71B3
:1063900058E0207A5021ADF8040088534846FFF7B2
:1063A000B5FA28B18020216AFFF708FDAF702EE012
:1063B0006A4601A9206B08F049FA206210B195F8ED
:1063C000451011B14248206221E09DF8001031B91A
:1063D000A0F8008080F80280012108F06FFDBDF870
:1063E0000410206A08F024FD11E0B6F85000ADF862
:1063F00004006A4601A9206B08F028FA206230B92F
:1064000040F2A5211EE04846FFF780FAC0B1206A9D
:106410000823017821F008010170EA7903EAC20239
:10642000114321F0040101702A7A042303EA820255
:10643000114321F010010170C943890705D007E01D
:1064400040F2AE212720FEF767FCC07802280FD06B
:10645000206B07F096FF08B101210AE0206A00785E
:10646000C043800704D0FFF70FFA80F0010100E07D
:106470000021206A027842EA01110170A97C91B1E1
:10648000417881B1134806F077FA11482838077629
:10649000D5E91612C0E904120E48216A05F0A0FEE3
:1064A00005F0EAFE03E006F067FA05F0C7FE96F88D
:1064B0006B200121002006F0E9FA2771206A01888B
:1064C00021828078A0742770BDE8FC87CC00002072
:1064D00070090020400800206D610000F15E00009E
:1064E00069600000C5620000004870472D1300205D
:1064F00070B5002635460F4C18E0601990F83B2126
:1065000090F80311012A02D090F84B0160B10A48BB
:1065100004EBC101731C855591F853213046DEB25E
:1065200001F5AA7106F0D2FB6D1CEDB2A078A8426D
:10653000E3D870BD5A1100207402002004498A7803
:10654000824203D9084490F8430170470020704705
:106550005A11002004498A78824203D901EB0010C5
:1065600083307047002070475A110020054A01EB24
:10657000410102EB41010268C1F80B218088A1F8BA
:106580000F0170475A1100202DE9F0410746002401
:10659000104D19E02046FFF7DDFF030012D0281947
:1065A00090F8430170B904EB440005EB400606F295
:1065B0000B163A463146184608F0CBF830462146CD
:1065C000FFF7D4FF641CE4B2A878A042E2D8BDE88B
:1065D000F08100005A1100202DE9F0410E460746D7
:1065E00015460621304608F06CFB0D4C60B10020CA
:1065F00004E02118401C81F83B51C0B2A1788142CF
:10660000F7D80120BDE8F0813146384608F02DF971
:10661000082803D0204480F83B51F2E70020F1E73E
:106620005A11002004498A78824203D901EB0010F4
:10663000C01C7047002070475A11002008498A7812
:10664000824203D90A1892F843210AB10020704708
:1066500000EB400001EB400000F20B10704700001F
:106660005A11002010B540F2D3120021084806F05C
:10667000D5FF0822FF21074806F0D0FF054800217A
:10668000001F017041704FF46171418010BD000026
:106690005A11002074020020014908707047000060
:1066A000700200200148007870470000700200204E
:1066B0000B4B10B59C7884420FD9184490F8030115
:1066C00003EBC00090F853310B70D0F854111160F7
:1066D000B0F858019080012010BD002010BD0000CE
:1066E0005A11002007498A78824209D9084490F853
:1066F000030101EBC00090F85A0100F0010070475F
:10670000002070475A1100202DE9F0479846914625
:106710000C46054600F062F90646102806D000F047
:106720002DF9102802D01220BDE8F087184FB87854
:1067300008282AD2102E05D100222146284600F032
:1067400031F90646BC781022601CB87007EB0415BE
:10675000E81C494608F058FA05F18300102241462A
:1067600008F052FA1021404608F0ABFA3C441021E0
:1067700084F84301484604F5967408F0A2FAE077DD
:1067800004F8296C0020E073CEE70720CCE7000076
:106790005A110020064810B58078401E44B204E02B
:1067A000E0B200F063F9641E64B2002CF8DA10BDA8
:1067B0005A110020014840887047000070020020F4
:1067C00038B14AF2B811884203D803494880012001
:1067D0007047002070470000700200202DE9F0474C
:1067E00001251F4691462C46002600F0F7F8102898
:1067F00023D0DFF8588008EBC00191F85A1101F05E
:10680000010600F0BBF80346102816D007B13B7014
:106810001846FFF707FF80B198F8021040469942EA
:1068200003D9C11891F84B4100E0002408EB0300A4
:1068300090F83B01012806D0002549EA06002543CF
:106840002840BDE8F0870125F7E700005A11002035
:1068500070B50D46064600F0C1F8104C102807D060
:1068600004EBC00191F85A11C90701D0012070BD95
:106870006178082910D2102808D004EBC00001214B
:1068800080F85A116078401C6070EFE701222946B9
:10689000304600F087F8F5E7002070BD5A1100205F
:1068A00070B50B4D2878401E44B20AE005EBC400D9
:1068B00090F85A01C00702D0E0B200F01FF9641E40
:1068C00064B2002CF2DA03490020487070BD000069
:1068D0005A110020700200202DE9F04100242546C5
:1068E000184E29E006EBC50797F85A01C00721D0DA
:1068F000284600F043F80346FFF794FE01460020C7
:10690000102B09D0F21892F83BC1BCF1010F02D054
:1069100092F84B2102B10120401E01420AD10A48DF
:1069200007F5AA7103552046641C97F85321E4B279
:1069300006F0CCF96D1CEDB23078A842D2D8BDE893
:10694000F08100005A11002074020020024609481C
:1069500010B500780B4658B10748817841B10BB1AA
:10696000C01C01E00448833005F05CFB012010BD31
:10697000002010BD700200205A110020084910B5F7
:10698000034600208A7806E00C1894F803419C42E4
:1069900004D0401CC0B28242F6D8102010BD0000C6
:1069A0005A11002070B50C4B04461878451C1D7018
:1069B000102803D346212820FEF7AEF903EBC003CD
:1069C0000D68C3F854518988A3F8581183F85341CE
:1069D00083F85A2170BD00005A1100202DE9F041C2
:1069E0000F46064600240D4D0FE000BF05EBC40026
:1069F00090F85311B14206D10622394600F5AA702B
:106A000006F080FD38B1641CE4B22878A042EDD8CD
:106A10001020BDE8F0812046FBE700005A1100205D
:106A200070B50546FFF7AAFF10281CD10E4C207840
:106A3000401EC0B22070A84215D004EBC00204EB87
:106A4000C50102F58070D2F85321C1F85321D0F866
:106A50005700C1F857012078FFF790FF102802D0A7
:106A6000204480F8035170BD5A1100202DE9F047F1
:106A7000214C0646A719A078401EC5B2A57097F80C
:106A80000381AE422AD004EB051A04EB06190AF181
:106A9000030109F10300102206F046FD0AF183010B
:106AA00009F18300102206F03FFD601905EB450255
:106AB00090F8031187F8031106EB460104EB42023C
:106AC00004EB4101D2F80B31C1F80B31B2F80F21C0
:106AD000A1F80F2190F83B0187F83B0104EBC800B7
